:020000042000DA
:1000000000980020A1040020A9040020C1040020C1
:1000100000000000000000000000000000000000E0
:10002000000000000000000000000000D9040020D3
:100030000000000000000000F1040020F304002094
:1000400027240020053103000D31030097240020F0
:10005000A92400208D310300E3240020EB2400209C
:10006000F5040020F504002003250020AD31030035
:100070003D180020411B0020F5040020F50400205D
:10008000F5040020F5040020F504002045160020AA
:10009000491600204D16002051160020551600204C
:020000042000DA
:100160003200000055060020930F002011260020C9
:10017000000000000000000063800200BD8002005B
:100180008D0D0020FB8002001981020035810200E4
:100190005D810200F92300203B060020790D00203C
:1001A000830D002000000000000000003F00000060
:1001B000F4850020000A0000680D0800900200008D
:1001C00068070800F405000004100800000800009B
:1001D000000000002000000048000000580000005F
:1001E0006800000004010000160100002801000062
:1001F0002E010000202A00008E2E000001000000C9
:10020000881300001D100020E9600200FD93020029
:10021000231C002019280300A57402007922002065
:1002200003000000D52002001D260020040000006D
:10023000D74902000F490200831D020063910200AA
:10024000B7910200BF910200078202007182020092
:10025000A0440020AD830200938402004185020087
:1002600015860200378602005F860200758602004E
:10027000F9870200258902005D8A0200D38C020002
:10028000098D02000F900200438D0200278E0200AC
:10029000F98E0200478F0200FF0C0020D58F02006C
:1002A00049510200775102002F5202001000000055
:1002B00020030000803E000000000000000000005D
:020000042000DA
:1002C000504600030003983A6400F401B80B000C98
:1002D000B80B120030003000CD009A01120024004B
:1002E00030006400B0001800280012001200D0078F
:1002F0000000FFFF00000000000000000000000000
:100300001F000002444131343538302D30310000B7
:1003100000000000000000000000000000000000DD
:0403200000000000D9
:020000042000DA
:10034000FFFF010000C201000000000000000000EB
:100350000000F4010100011B0A071AFFD200021578
:10036000585CDE931B0142CC9A1325009BEDC65EC0
:1003700000010002C5000000000009FF00605257A4
:100380002D424C450000000000000000000000006D
:100390000000000000000000000044413134353806
:1003A000300000000000000000000000000000001D
:1003B000000000000000000000000000000000003D
:1003C000000000000000000000000000000000002D
:1003D0000000000000000000010000CAEA80D00711
:0403E000064064323D
:020000042000DA
:100440000348854603F0A2FD00480047C72002008C
:10045000009800200E4906200880FF200D49013039
:1004600008600D4988683E2290432E308860002243
:10047000052000070280018A0F231B021943018215
:1004800001210648C90404C1401EFCD562B670476C
:100490000034005080E100E000330050FF0B00000A
:1004A000154880471548004704207146084203D08C
:1004B000EFF3098012490847EFF308801149084714
:1004C00004207146084203D0EFF309800E49084723
:1004D000EFF308800C49084704207146084203D016
:1004E000EFF3098009490847EFF3088007490847F7
:1004F000FEE7FEE7FEE7000055040020410400206F
:10050000650A0020A904002011050020C305002071
:1005100005221207518A8023194351821249036828
:100520000B6043684B6083688B60C368CB60036972
:100530000B6143694B6183698B61C369CB6108625D
:100540000A48836A4B62C36A8B62036BCB62C36BDC
:100550000B63436B4B63806B8863908A800601D585
:1005600000BE7047FEE700000018080000ED00E044
:100570008307FF22DB0E9A408907090E9940002865
:100580000BDA0007000F08388308CD489B001B18C2
:10059000D86990430843D86170478308C9489B00D5
:1005A0001B1818689043084318607047028908892F
:1005B000C549101A80B2884201D901207047002035
:1005C000704781692039897F082904D2BF4A890090
:1005D000515881617047FEE710B5BE48BC490161C2
:1005E000BD494161BD498161BD49C161BD490162EA
:1005F000BD494162BD498162BD49C162BD490163D6
:10060000BD494163BD498163BD49C163BB49B1482F
:100610005C3140300160BB494160BB498160BB49EE
:10062000C160C8160124BA49E4060C600021FFF736
:100630009FFFB7488038046010BD10B5B549002051
:10064000086000F057FB01208007016B4900490852
:10065000016310BD1CB5B04901200870AF490820E6
:100660000880052424076088AD4E0425002823D186
:10067000708801210843708000200190401C019087
:100680001428FBDB608980088000401C6081608941
:100690004006FCD5608928436081A248608060895B
:1006A000A8436081A08A0006FCD56089800880008C
:1006B000608160890006FCD503F07AFC00F040FD03
:1006C00000F06CFA98480178017098480178017040
:1006D000012003F073FCFF2701370D20394680010C
:1006E00003F072FC01F0E4FD00F0BCFB00F07CFACA
:1006F000042000F0DDF8072000F0DAF80A2000F00E
:10070000D7F8062000F0D4F80B2000F0D1F8012033
:1007100000F0CEF8022000F0CBF8002000F0C8F87E
:100720008348006803F056FCB8050168394301604E
:1007300000F01DF90121C81EFFF71AFF02F0F8FBB7
:10074000FFF77BFFA220E08275484188E0229143B9
:10075000A0314180012003F043FC022620890006DD
:100760001AD501208007006B000415D403F03EFC6D
:10077000C00711D1042003F03FFC074603F042FC00
:10078000002F09D000200190042101A803F040FCB3
:10079000002801D000F0C1FA664F3878002807D051
:1007A00065480078002801D100F0F3FF0020387080
:1007B00002F0FAFE72B602F09CFF01F09FFD69465E
:1007C0000870042806D002280CD003280AD001287B
:1007D0006BD06BE059480078012802D003200870E4
:1007E00000E00E70208A284320825548C069012805
:1007F000087811D9032845D103F010FC002841D016
:1008000003F012FC00283DD0032003F013FC002865
:1008100038D04C48067008E0032833D103F00AFCB6
:1008200000282FD047490120087025480169294335
:100830000161618A202291436182218A31432182B0
:1008400069460A78618A022A1ED0294361827F2183
:100850002388890180273B43238000235B1CDBB274
:100860000A2BFBD3638A10273B436382364B491E16
:1008700059612188802399432180022A0AD0032AC2
:1008800008D00DE06846C5E729436182618A1022DD
:100890009143618222494A88FF2301339A434A8067
:1008A00030BF0169A943016100E030BF62B655E77E
:1008B000C106C90E01208840244908607047000025
:1008C00000ED00E000E400E030750000804400200E
:1008D000942703000084004062B600DF28A30200D2
:1008E000704701DF1CCA0200F8BD02DF40CB0200E6
:1008F000F5E703DF84D4020004DF89B0BC330200D3
:10090000F8BD05DFF8BD06DFEC0C030070BD07DFA6
:1009100080E100E08C0308000080002000330050DC
:10092000200000501605000000000800202A0800E2
:100930000490002082800020F480002054020800EF
:10094000E0010020C40608000080004080E200E0D2
:10095000704700003E480178002902D08021417094
:1009600070473C49002008703B49C87070473848C0
:100970000178002902D0812141707047354901205A
:1009800008703549C870704731480178002902D095
:100990008221417070472F49022008702E490120A2
:1009A000C87070472A488178002904D0491E09067A
:1009B000090E817017D142780021002A04D09207D5
:1009C000920F0270417004E00278002A01D0521E9A
:1009D00002701206120E017005D0012A02D0022AFE
:1009E00001D1D1E7C3E7704710B5194CA078401C7E
:1009F000A0702078002805D103F022FB421CFFF7ED
:100A0000A9FF227010BD12490120C870704710491B
:100A10000020C87070470E48C07870470020EFF380
:100A20001081012282F31088052212071289120612
:100A300005D40A48028901231A4302811846002975
:100A400000D0012181F31088704705480078704775
:100A50000180002054020800C60608000033005040
:100A60006880002005221207118A0423194311828D
:100A7000118A0223194311821189402319431181DC
:100A8000184B01211960184B08211980518A8023C5
:100A900019435182154903680B6143684B618368B0
:100AA0008B61C368CB6103690B6243694B628369E5
:100AB0008B62C369CB6208630D48836A4B63C36A68
:100AC0008B63036BCB63C36B084940310B60436B93
:100AD0004B60806B8860908A800601D500BE7047AD
:100AE000FEE7000080E200E00033005040180800FC
:100AF00000ED00E070B5384800220169D2430029BA
:100B000001D0114600E00121CB170C0F1B0123433C
:100B10000C01016131490D684E682C4333430C6070
:100B20004B604369002B01D0144600E00124E31719
:100B3000E50E5B012B4344610D6864014E682C4354
:100B400033430C604B60C369002B00D10122C261AA
:100B5000D017530EC00118430C68D2014B682243D2
:100B600018430A60486070BD38B5002403252D0283
:100B700002232A4604212046009400F084FB01232E
:100B80001A0205210020009400F07DFB00232A4674
:100B900007211846009400F076FB38BD10B50524F7
:100BA0002407208A022188432082A08A0007FCD5DE
:100BB000FFF712FDFFF7D8FFA08880210843A0802F
:100BC0000321092000F0B6FD608A202108436082DD
:100BD00002F04BFD10BD0000289000202090002066
:100BE000934900204860704770B5052000070189CF
:100BF00030229143018101898022114301810189C1
:100C000089088900491C0181018908231943018150
:100C100088490C8814430C80448A9C43448205898B
:100C2000402425430581058A0426B5430582858A2B
:100C3000AD07FCD57E4E002575600D880126354335
:100C40000D804D89AE057C4D0E8801D52E4300E008
:100C5000AE430E800D887826B54328350D800D886B
:100C6000062635430D80458A1D4345820B889343F4
:100C70000B800289A24302814889800503D56D4912
:100C8000052060318880012080070168821591432A
:100C900001606A4801683F22520291434214891858
:100CA0000160016802031143016070BD0520000767
:100CB0000188302211430180018803221143018001
:100CC0007047052000070188302291430180018888
:100CD00089088900018070470321594809028181F0
:100CE000082242800021491C9629FCD3828070474B
:100CF0007047704710B5534803F0A8F910BD70B5A0
:100D00004C4C6088C006050F03F0A6F961881E22CE
:100D100091436A001143618070BD10B54A490120BA
:100D2000C863C86B0028FCD101208007C16947480F
:100D30000268914201D20022026019238A1ADB0163
:100D40009A4212D3016003F08DF9414A118888421A
:100D500001D9411A00E0091A89B2182905D3108077
:100D6000012003F085F903F089F910BD08B500985A
:100D700008BD08B5009808BD08B503F085F90090D6
:100D800008BD08B503F086F9009008BD08B53149E3
:100D900001204A695206D20F13D04A699206D20F37
:100DA0000FD000220A610092FF225F32009B5B1C81
:100DB00000939342FAD34969C907C90F02D003F0DF
:100DC0006FF9002008BD40183721C0000901401804
:100DD000704710B5204A0020117800290DD01A491B
:100DE0000120C863C86B0028FCD101208007C069BE
:100DF0001A490968884201D2012010BD00201070F4
:100E000003F01EF9022803D003F01AF901280BD1D0
:100E100013490820088005200007818A8906FCD430
:100E2000418A802291434182002010BD00207047FA
:100E30000880002020000050001000000002004048
:100E4000203000507D120000C00000407C040800EB
:100E5000780408000010005000800020184700208F
:100E60000033005030B58B4A8B49D005048880236D
:100E70001C430480894C65892D0701D4521EFAD287
:100E8000874C01222260874C0A882280864A498842
:100E9000118001889943018030BD00207047704760
:100EA000704770470020704701218907086B0722AF
:100EB000104308637047704710B57D497B48086050
:100EC0007C494C2008807B4B7B4A203B1A827C4922
:100ED0007A4848807C487B4901807A4919314180B1
:100EE000222141818121890001827849418278490A
:100EF00001837649113141837349764820318880D6
:100F000041217548090181807449C180734C1034B6
:100F1000C48101824182891C8182611FC182FF21BB
:100F2000463101836E4941836E49592008806D48DE
:100F30006D4C20300480432444806C4C4C82D5217D
:100F40008180FF21D33101816949418169498181D2
:100F50006A49694808805748694960384180C188B2
:100F600010242143C18060490A390181514C6549EF
:100F7000403C61805A82082141814B485949008890
:100F800040390882474860490088088010BD400801
:100F9000704700B58BB05D4A42625D4A82625D4A2D
:100FA00042615D4AC2625D4A02605D4A02625D4A18
:100FB00042605D4AC2613E4A3C48002110603C48A4
:100FC0004038026B03129A430263426B1F231B04D7
:100FD0009A4303231B04D218426354480268C31285
:100FE0009A430260026803139A43026068464154C0
:100FF000491CC9B22829FAD3014628224C4803F0DB
:1010000055F8FFF759FF03F02DF84A4908800020F2
:1010100003F02EF803F032F80BB000BD10B5244AEF
:101020000F2122480902106021484038426B1F23DB
:101030001B049A4303231B04D21842630006026870
:10104000D208D200026005200007028992089200AF
:10105000521C0281028908231A430281028A0A4330
:1010600002820E484189890504D50188782291437E
:1010700008310180FFF720FF2F48006B007800281F
:1010800004D02E4800880B496039C880012002F046
:10109000A7FF10BDA0860100087F040020000050BB
:1010A00000800040560208004A0308004C0554071F
:1010B00080000040602C00507F7F0000AC290000C1
:1010C0000022005009090000002400502204000002
:1010D00030D00000EE110000002500502E0200006C
:1010E00044200000402800500D95000002420000FE
:1010F000E4DC00001092000053780000002A005049
:101100008B1000009DD50000002600509B0E002093
:101110009F0E0020A50E0020A90E0020A10E002089
:10112000B70E0020A30E00208F0F00200002004009
:101130002000080078040800200200205204080063
:10114000FEB50020FE4E034628220021424392199C
:101150008C00491C13510A29FADB401C0428F3DBDC
:10116000FFF7C8FCF64800220838026042601546C6
:101170000024F4486900475A0120A04080B2074289
:101180001CD0282068438019A1004058411C19D068
:10119000002810D0C117224602F08EFF2A0102F06B
:1011A0008BFFE74B083B1A685B681043E44A19431E
:1011B000083A10605160641C0A2CDDDB6D1C042DA4
:1011C000D6DBFEBD0095019400BEE3E7F8B51646F8
:1011D00004460D460A461F460120002102F06CFF1E
:1011E000220102F069FFD64B083B1A685B68104089
:1011F0001940084300D100BE032C00D10424D24979
:1012000060014018690008183E43C680F8BD70B5FB
:1012100004460D460A460120002102F04DFF22013E
:1012200002F04AFFC64A083A136852681840114053
:10123000084300D100BE032C00D10424C249600140
:1012400040180121A940818070BD70B504460D464B
:101250000A460120002102F02FFF220102F02CFF9C
:10126000B74A083A1368526818401140084300D141
:1012700000BE032C00D10424B349600140180121B1
:10128000A940418070BDFFB581B00C4605460A46B5
:101290001F46012000210A9E02F00EFF2A0102F0E3
:1012A0000BFFA74B083B1A685B68104019400843C6
:1012B00000D100BE002E2146284602D0FFF7C5FF10
:1012C00001E0FFF7A4FF3B4621462846039AFFF7BB
:1012D0007DFF05B0F0BD70B504460D460A460120FD
:1012E000002102F0E9FE220102F0E6FE944A083AEB
:1012F0001368526818401140084300D100BE032C07
:1013000000D1042490496001401800880121A940BF
:10131000084000D0012070BDFFB514460D460646BA
:101320000A4681B00120002102F0C6FE320102F01F
:10133000C3FE834B083B1A685B68104019400843A2
:1013400000D100BE81A000680090814883892046BA
:101350001338FF22013282400B999343002901D0B8
:10136000012700E00027D10701D0002138E09107D4
:1013700001D5012134E0510701D5022130E01107E8
:1013800001D503212CE0D10601D5042128E09106E6
:1013900001D5052124E0510601D5062120E01106E2
:1013A00001D507211CE0D10501D5082118E09105E0
:1013B00001D5092114E0510501D50A2110E01105DC
:1013C00001D50B210CE0D10401D50C2108E09104DA
:1013D00001D50D2104E0510401D50E2100E00F21BB
:1013E0008F405B493B438B818B890B9F9B099B0102
:1013F0003B438B810B8A9343D70701D0002238E00F
:10140000970701D5012234E0570701D5022230E0C9
:10141000170701D503222CE0D70601D5042228E0C6
:10142000970601D5052224E0570601D5062220E0C3
:10143000170601D507221CE0D70501D5082218E0C0
:10144000970501D5092214E0570501D50A2210E0BD
:10145000170501D50B220CE0D70401D50C2208E0BA
:10146000970401D50D2204E0520401D50E2200E0BC
:101470000F220A9F97403B430B820B8A02460127AB
:10148000384690408343C20701D0002238E08207EB
:1014900001D5012234E0420701D5022230E00207E3
:1014A00001D503222CE0C20601D5042228E08206E1
:1014B00001D5052224E0420601D5062220E00206DD
:1014C00001D507221CE0C20501D5082218E08205DB
:1014D00001D5092214E0420501D50A2210E00205D7
:1014E00001D50B220CE0C20401D50C2208E08204D5
:1014F00001D50D2204E0400401D50E2200E00F22A8
:101500000498904003430B8211486100403808184A
:10151000418B6A468909925D8901521911434183C1
:10152000A007C20EFF21914080209040002C18DAC5
:101530002207120F083A9308064A9B009B180BE0FB
:1015400028900020B64400200030005001090F19F7
:101550000014005000ED00E0DA698A430243DA61CA
:1015600007E0A3083C4A9B009B181A688A43024381
:101570001A60E006C00E874038480760A9E610B53B
:10158000374CE38901221338114681408B43C80749
:1015900001D0002038E0880701D5012034E0480759
:1015A00001D5022030E0080701D503202CE0C80651
:1015B00001D5042028E0880601D5052024E048064E
:1015C00001D5062020E0080601D507201CE0C8054B
:1015D00001D5082018E0880501D5092014E0480548
:1015E00001D50A2010E0080501D50B200CE0C80445
:1015F00001D50C2008E0880401D50D2004E0480442
:1016000001D50E2000E00F2082401343E38110BD7E
:10161000144A8000801880384163704710B5044632
:10162000FFF7ADFF0F49A00040188038406B00283D
:1016300001D0804710BDE106C90E012088400A494B
:10164000086010BD1320E9E71420E7E71520E5E75F
:101650001620E3E71720E1E700E400E000E100E006
:1016600000140050C890002080E200E0F0B4CB48A5
:10167000C94D0022C8496035836818E01C78002CE9
:1016800004D0022C0BD0012C0BD0FEE74668347836
:10169000761C0C6004684660641E046003E013243A
:1016A00000E011240C601A700468002C05D0AC8B8B
:1016B000A407E40FE2D1F0BC704742604B680224FB
:1016C000A3434B60C1680029F5D0C260F0BC002084
:1016D0000847B1484069C007C00F01D000207047DB
:1016E00001207047AC4922200861704700B5AA4923
:1016F000012248694006C00F16D048698006C00F15
:1017000012D0FFF7E6FF00280ED0086902239843A5
:101710000861FF2387330220401C9842FCDBFFF75F
:10172000D8FF002803D000E00022104600BD222090
:101730000861F9E730B4984A93898024A3439381E0
:101740008723138100239380958925439581938076
:101750009380108091819089A0439081904861018D
:101760000160904802684024120A1202224302607B
:101770008B48803801608C480160884820300370B5
:10178000203843618361036143608360036030BC40
:10179000ACE7814911200860704700B57E4A0121FD
:1017A00050694006C00F14D050698006C00F10D099
:1017B000FFF78FFF00280CD013201060FF23873322
:1017C0000220401C9842FCDBFFF783FF002803D077
:1017D00000E00021084600BD11201060F9E76E48C6
:1017E000016902229143016170476C4800687047AB
:1017F0006948A021016141698906C90FFBD041698F
:101800004906C90FF7D0704710B5644CE361A26177
:10181000216160616048012142688A430A43426055
:1018200010BD10B55D4CE360A26021605A49606054
:101830004868022290431043486010BD10B55648D6
:1018400081680907090F01291FD0022921D0042925
:101850001CD00C2919D1514920310978012912D104
:1018600041690906C90F0ED04C4900220A614A613C
:1018700083885B085B008380CB69002B03D0CA613F
:1018800000210120984700F029F810BD00F053F81E
:1018900010BDFFF7EBFE10BD00B53F48416949069A
:1018A000C90F09D040698006C00F05D0FFF711FFAE
:1018B000002801D0002000BD012000BD36498A8AE1
:1018C0009206FCD50880704700B5034602E0FFF79A
:1018D000F5FF5B1C18780028F9D100BDF8B500268B
:1018E000324F2E4C2C4D0EE02868C0B238701128B3
:1018F00017D0132819D0616908702069491C401E4F
:101900006161761C20616869C007C00FECD1616914
:10191000087060612061E269E06131460220904711
:10192000F8BDA16901200870EDE7A16902200870E7
:1019300001F057FEE7E7F8B500251C4F174C164E8F
:1019400011E03068C0B23870112811D0132813D0BC
:10195000616908702069491C401E61616D1C20612D
:10196000206900280ED07069C007C00FE9D1F8BD0A
:10197000A16901200870F3E7A1690220087001F055
:1019800030FEEDE700206061E269002AEFD02946D1
:10199000E0619047F8BD0000001000501C8000205E
:1019A00080E100E00CE400E080E200E0DC90002058
:1019B00030B4724C71497248603408E043681A7858
:1019C0005B1C0A6002684360521E026005D0A28B55
:1019D0009207D20FF2D130BC7047002242604B68B0
:1019E0000224A3434B6081680029F4D0826030BC9C
:1019F0000020084730B5614A93898024A34393812E
:101A00000723138100239380958925439581938033
:101A10009380108091819089A04390815948A101C1
:101A2000016059480268FF242402A2434C0022436B
:101A30000260544880380160544801605048037681
:101A40000361C3604360036030BDD3E74B4922208C
:101A500008617047494922200861704708B5474925
:101A600001204A695206D20F13D04A699206D20F5A
:101A70000FD000220A610092FF225F32009B5B1CA4
:101A800000939342FAD34A69D207D20F02D02220A0
:101A90000861002008BDE1E73848A02101614169E3
:101AA0008906C90FFBD041694906C90FF7D07047B5
:101AB000F2E7334B5A61D96018613048012142681E
:101AC0008A430A4342607047F3E710B52C4CA2608A
:101AD00021606060FFF76CFF6068002805D027492F
:101AE0004868022290431043486010BDEDE710B5EE
:101AF000224881680907090F01291AD002291CD040
:101B0000042917D00C2914D11D4A117E012910D1A6
:101B100041690906C90F0CD00021D1601161838889
:101B20005B085B0083805369002B02D00120516168
:101B3000984710BD00F005F810BDFFF739FF10BD44
:101B4000D5E70F490D4808E002680B691A705B1C65
:101B5000CA680B61521ECA6004D04269D207D20F14
:101B6000F2D1704700220A6143685B085B00436062
:101B70004B69002BF5D000204A6118470011005036
:101B80004080002080E100E00CE400E080E200E022
:101B900070B5EFF31085012080F31088264802F01D
:101BA00091FA0446002D1DD0012080F31088002CEE
:101BB00023D020462038C08B204988421DD161891E
:101BC000208902F085FA05000ED021461031A38944
:101BD00062892089A847002806D001280DD0022854
:101BE0000BD105E00020E0E7204602F077FA04E0A0
:101BF000114821460C3002F077FAEFF310840120EF
:101C000080F310880C480068002802D1012002F0FF
:101C100071FA002C03D0012080F3108870BD0020E1
:101C2000FAE710B5BC21064802F06AFA054901201E
:101C300002F06CFA10BD0000A8050800388300000F
:101C400004060800911B002070B516460D4610468C
:101C500002F062FA002869D0340A304602F05CFAD9
:101C6000012812D0A87A1E2811D029460A310E2840
:101C700045D019DC801E030002F054FA0B255829C8
:101C8000582D58315839583D5800022070BD314602
:101C9000274802F04DFA0021204602F04FFA0221B7
:101CA000304602F051FA41E018283CD006DC1028FA
:101CB00019D012282BD0162838D130E0522822D043
:101CC000D22833D127E0204602F044FA2EE0204605
:101CD00002F046FA2AE0204602F048FA26E02046C2
:101CE00002F04AFA22E0204602F04CFA1EE02046BA
:101CF00002F04EFA1AE0204602F050FA16E02046B2
:101D000002F052FA12E0204602F054FA0EE02046A9
:101D100002F056FA0AE0204602F058FA06E02046A1
:101D200002F05AFA02E0204602F05CFA002070BD90
:101D300001280000F3B581B001980C460102CA1DCC
:101D40000E310223344802F053FA0470019905461B
:101D5000022732488E00002C06D0042C16D0062C08
:101D600010D0072C3FD108E0815905224968897CB1
:101D7000114069708059C77335E0084602F03EFA99
:101D8000687030E080590F21C1732CE004468059FF
:101D90004068417C012902D1007E01280FD00198C2
:101DA00002F032FA01210028A0590BD04268D07D00
:101DB00000281CD001281AD004280DD00FE00020E4
:101DC00068700DE04068C27D022A01D0042A06D165
:101DD000007C02280BD102E0107C022807D06F7033
:101DE000A1590320C873284602F014FAFEBD697099
:101DF000F6E701460A780120042A01D9002070473D
:101E00004A78002A01D0012AF8D10A79082AF5D89F
:101E100049790829F2D87047021C000028050800FB
:101E2000FFB589B00D4600206946059008720B98F1
:101E3000000A009002F0E8F907460B9802F06CF9EE
:101E400000287DD00B982978000A8400784E01295B
:101E500063D0042904D0062948D0072968D125E099
:101E60003059C17B032901D0042961D16978002947
:101E70001AD040681022A91C02F018F9002F06D0D1
:101E80003159C87B032807D0042808D050E03059C6
:101E9000C07B032803D04BE00B20C87348E005212A
:101EA000009802F0BDF943E00120B6E03059C07B54
:101EB0000E283DD1009802F0A1F9002103E02A1874
:101EC000401C9170C0B21028F9D3688A6946088313
:101ED000294606A808221431023002F0E7F806ABC2
:101EE000AA1C3946009802F0A1F921E03059C07BC4
:101EF0000F281DD1AA1C0A21009802F09DF9002F7D
:101F000004D03946009802F09DF911E000231A46EA
:101F10003946009802F09CF90AE0012F08D10B988D
:101F200002F0FAF801281CD0002801D00220059008
:101F30006846007A002811D002AA0521009800E026
:101F40000CE002F079F96846027A602002436846A4
:101F5000027201233946009802F07AF905980DB013
:101F6000F0BD3059C07B0228E2D16878002851D0FA
:101F700002210B9802F0E8F8305907224068A91CAA
:101F8000173002F093F8E878002804D130594068FF
:101F9000407C01283AD0009802F060F9002837D040
:101FA000297A009802F060F9002833D0009802F0F6
:101FB00061F90121009802F063F900282CD0305912
:101FC0004068417E00292BD0042929D0C17E027DA2
:101FD0001140C17630594068017F427D1140017740
:101FE0006846007A0028A7D130590221426800983B
:101FF000173202F021F9305941684031897B0029BC
:1020000013D004210098FFF795FE91E7022004E029
:10201000062002E0082000E00320694608728BE7F2
:102020000021C17630594068D9E70B21C1737FE7A1
:1020300028050800F8B50D46064681002B48EA88B9
:102040004458521C20686B89018F294F51430091DD
:10205000014640314A89C989511A8AB2991A89B20E
:10206000B94214D29A4212D0294602F00FF92D89B2
:102070002049009802F010F92818801C4034E082B2
:102080003002401C80B2042102F05EF8F8BD282125
:10209000304602F007F9F8BDF8B505468700134849
:1020A0000C46C059C9880068114E02464032538917
:1020B000D2899A1A92B28B1A9BB2B34211D20B4EAA
:1020C0008A420ED002F0F4F8F05905225F30611C0C
:1020D00001F0ECFF2802401C80B2052102F034F828
:1020E000F8BD2821284602F0DDF8F8BD4C030800B1
:1020F000FF7F00001027000070B50446007800251F
:102100000D2801D00A2200E002225A494B7A002B06
:1021100006D00D2804D0637C032B01D0432551E069
:10212000097A8A4339D10D2809D00E2802D00F2808
:1021300003D134E0607C032804D3402542E0607C76
:102140000328FAD8A07C0428F7D20A2908D0607C9A
:10215000012822D0022820D06078032809D811E075
:1021600002F0ACF8012806D16078032803D00028DB
:1021700001D0492526E002F0A1F8002802D16078BC
:102180000228F6D83020035D22462046E17C313219
:10219000143000F019F8054614E0422512E002F070
:1021A0008DF8012807D16078052804D1A01D02F020
:1021B0008BF80028DDD002F081F8002802D1607889
:1021C0000228D6D8284670BDFFB5002086B0012170
:1021D0006A461170044605910021002C06D0089D26
:1021E000099A1F239A4234D9402032E01C23069DCD
:1021F000079AF7E76B185E78330001F093FF1D260E
:102200001010101010101010102626262626262634
:102210002626262626261010101010102600059BB4
:1022200003E06F46FF5CB74204D05B1E5BB2002B3D
:10223000F7DA03E0002B01DB4A2006E0059B6F463E
:10224000FE54059B5B1CDBB205936B5C491C591863
:10225000C9B2914201D20028CCD0914202D04A208A
:102260000AB0F0BD641CE4B2022CF9D20028B3D04D
:10227000F6E700009805080070B516460C460546BE
:1022800001280FD106221749174802F023F8002829
:1022900008D006221449304601F008FF06202070BD
:1022A000002070BD32462146284602F019F870BD64
:1022B00070B50E480E49C405228880252A43228025
:1022C0000C4A53891B0701D4401EFAD20A4A012046
:1022D00010600622044801F0E9FE2088A84320800F
:1022E00070BD0000383E03005C800020A086010025
:1022F000D47F04002000005000800040F8B5374C27
:10230000002660690090FEF786FB354D002802D15B
:102310002879022801D100200090FEF75AFD0028FC
:1023200059D101F0E3FF002855D0E87801260028B4
:1023300051D005273F07B88AC00701D004264AE0DC
:1023400001F054FE002846D126488069002801D0BB
:1023500060690090A978684601F0CEFF00283AD065
:10236000A978684601F054FE002834D00120840783
:10237000E16B890A89020143E163E06B1A49084075
:10238000972189020843E063E06B0721C002C00A7D
:1023900049050843E06300980426C002642101F067
:1023A0007BFF1249401E08602979002900D00121D5
:1023B00001F0A8FF0E48C06A8047206B0004C00FE0
:1023C000FBD00C480168C905FCD501F0A1FF388994
:1023D0008021884338813046F8BD0000A0020020EB
:1023E000C6060800A8050800FF03E0FF648000207F
:1023F0001C0708000002004010B50124A407A06BD0
:10240000FEF7BFFC534901F047FF27221201511A82
:1024100000D10121504A50601160206B082188438F
:102420000843206310BD38B5002000904B490820B8
:102430000880FEF73BFC0524240702E000BF00BF34
:1024400000BFA08A0006F9D56089800880006081FD
:1024500043484188490849004180FEF732FCA08A80
:10246000400701D5FEF79AFB20898021084320818F
:10247000208A042188432082A08A8007FCD539491C
:1024800048050A68D20202D40269520702D4009AAF
:10249000002AF6D038BD10B501F040FF01F044FF2E
:1024A00031490120087010BD10B501F043FF05202F
:1024B0000007418A802291434182284801894908C6
:1024C00049000181D005816904221143816101F035
:1024D00037FF01F03BFF01F03FFF23490020087068
:1024E00010BD10B501F03EFF10BD10B501208007F2
:1024F000008A000704D501F03BFF1B490420087047
:1025000010BD70B51948008885061648AD0E4468A0
:102510001748006B0078002802D1284601F02EFFF2
:1025200014480089104EC00507D520060BD5E007DA
:1025300009D0284601F028FF03E0200603D5E00774
:1025400001D003203070200403D5E00501D502201E
:10255000307070BD71020000400000400033005038
:102560002000005000020040688000200020005041
:1025700020020020002C0050F8B514460F461E46DD
:102580000546428801880623204601F031FE0446B4
:10259000287901F0FFFE208027716680204601F037
:1025A00039FEF8BD70B51446428800790D46010227
:1025B0000C310423274801F01BFE002D01D013210C
:1025C00000E012210170448001F024FE70BD0A88F1
:1025D0000270120A42708A788270CA78C2700A79D0
:1025E00002714A7942718979817107207047427876
:1025F000037812021A430A8082788A70C278CA70FD
:1026000002790A7142794A7180798871072070478E
:1026100010B500F021F800F0F3FA10BD70B50646D1
:1026200015460C46372001F077FD022805D1E2B2AD
:1026300037232946304601F0B3FE362001F06CFD09
:10264000022805D1E2B236232946304601F0A8FE21
:1026500070BD00000D30000010B50C21054801F0E0
:10266000A5FE0549372001F0A7FE0021372001F023
:102670006BFD10BDDE900020C0440020F0B589B095
:102680000521C90268460184C91C8182FC49018375
:10269000491E8183FB4D0420EB80FF210090DA313D
:1026A000284601910A300C2200233721074601F009
:1026B00089FE04007DD1012601970096688908AB48
:1026C0000222102101F084FE0400F3D16889EE4A51
:1026D000102101F083FE0400ECD103A800960190C4
:1026E000688905AB0222132101F072FE0400E1D1DA
:1026F00002AF7002E44B01970090688910331022FA
:10270000A02101F065FE0400D4D1E0496846007ABA
:1027100088706846407AC8704A1C684613218089D0
:1027200001F05CFE0400C5D102A9082001910090CF
:102730000222688906AB114601F04AFE0400B9D1B5
:1027400004A800960190688907AB02220E2101F0CF
:102750003FFE0400AED1CC4A6846373A0E21008ACB
:1027600001F03CFE0400A5D103AF019700966889F3
:1027700005AB0222132101F02BFE04009AD102A91D
:1027800008200191C04B0090688920331022A021BD
:1027900001F01EFE04008DD1BC496846007A4875E0
:1027A0006846407A88750A46143268461321808943
:1027B00000E0A1E001F012FE040086D102A9092088
:1027C000019100900222688906AB114601F000FEDB
:1027D00004008CD104A800960190688907AB0222FE
:1027E0000E2101F0F5FD04008ED1A74A6846283A73
:1027F0000E21008A01F0F2FD04007DD103A9012021
:1028000001910090688905AB0222132101F0E0FDDF
:10281000040071D102AE09279B4B0097019668898D
:1028200030331022012101F0D3FD040078D1974903
:1028300068462031007A08726846407A4872CA1D9C
:1028400068461321808901F0C9FD040068D1092080
:10285000019600900222688906AB114601F0B8FD8E
:1028600004005DD104AF012001970090688907AB97
:1028700002220C2101F0ACFD040051D1824A6846CD
:10288000193A0C21008A01F0A9FD040048D103A9DE
:10289000012001910090688905AB0222132101F00B
:1028A00097FD04003CD10920774B01960090688980
:1028B00040331022012101F08BFD040030D1734917
:1028C00068462331007A08766846407A48760A4698
:1028D000684617321321808901F080FD04001FD162
:1028E0006B48019600900222688906AB114601F000
:1028F0006FFD040014D100E012E001200197009068
:10290000688907AB02220B2101F062FD040007D1A8
:102910005D4A68460C3A0B21008A01F05FFD0446CF
:102920006889002101F060FD002C03D101213720CE
:1029300001F00AFCE98801233722564801F058FCCF
:10294000047001F067FC002009B0F0BD70B54D4D7A
:102950000C466A802B80EB80488801F04BFD287183
:10296000FF2821D0608828816889012101F03CFD81
:102970004949002008706889221D0E3080B201216B
:1029800001F02CFD0221372001F0DEFB4148E988EF
:1029900002233722801E01F02BFC6989891C0180EB
:1029A00001F038FC002070BD3A4A37239B02921D8B
:1029B00089213448FFF7E0FDE8E710B531480021F0
:1029C000408901F011FD0121372001F0BDFB0020FD
:1029D00010BDF8B50878122839D12F4D2878401E3F
:1029E0000006000E287032D12C48007801282ED124
:1029F0002B4800F0A5FC4A2829D9802800D980203E
:102A00001B21143801F048FC1B2148431430C2B28A
:102A10006946234800F0C8FC1A4E044601467089F6
:102A2000009A801C80B201F0D9FC00280FD1214609
:102A30001B4800F0DBFC70890021801C82B230460C
:102A4000FFF7B0FD2878401C287000F0F6FD00204C
:102A5000F8BDF8B5372001F05FFB02284BD10E4DD1
:102A60002878002847D10D480078012843D10C4828
:102A700000F066FC00283ED0802813D9802013E0A7
:102A800002290000DE900020074500201C4700209E
:102A90000902000003DC0000698000208F80002014
:102AA000D4800020142806D31B21143801F0F4FB35
:102AB0001B2148431430C2B26946474800F074FCF9
:102AC000464E044601467089009A801C80B201F08F
:102AD00085FC00280FD121463F4800F087FC708913
:102AE0000021801C82B23046FFF75CFD2878401C34
:102AF000287000F0A2FD0020F8BD10B5374C0A4642
:102B0000608901210A3080B201F068FC60890021EF
:102B10000A3082B22046FFF745FD31490878401C53
:102B20000870002010BD70B52C4D0C460B886989CB
:102B30002A46C81C167983420FD020468A1D0830C9
:102B4000934207D1A17800F0D3FC3DE00022194662
:102B5000304627E0CA1D934203D1A0790128F5D061
:102B600032E00A460A32934204D1217A1D4800F02D
:102B700078FC29E00A460B32934216D1207A0128CC
:102B80000AD1607A002807D1E98801233722164844
:102B900001F02EFB01F03EFBA079012814D1218821
:102BA0002879002201F02CFC0EE00E318B420BD173
:102BB0008BB202460121184601F010FC0B49207A25
:102BC00008700BA0FEF780FE002070BD0748097852
:102BD0000170002070470000D4800020DE900020AB
:102BE000698000208F80002006DC00001C47002048
:102BF0002057726974652064617461200D0A0000B9
:102C000010B50A21284801F0D1FB2849362001F0EF
:102C1000D3FB0021362001F097FA10BD70B5224D8C
:102C2000064629880A233622214801F0E1FA0446A3
:102C3000287901F0AFFB208008223146A01C01F06A
:102C400035FA204601F0E6FA70BD7CB5164C00213D
:102C5000E08801F0C9FB1648218802233622401E75
:102C600001F0C6FA0546E08801AA801C80B26946D8
:102C700001F0CCFB207901F08DFB2880284601F083
:102C8000C9FA0121362001F05FFA7CBD10B5044677
:102C900005480123018806483622001D01F0A8FAE4
:102CA000047001F0B7FA10BD6A800020E8450020EA
:102CB00002D80000FFB589B00521C90268468182AB
:102CC000C91C018291490183914C36216180022106
:102CD000412500910422002301953621A01D01F019
:102CE00071FB05005ED1A01D012500950190E088D3
:102CF00005AB0222102101F06BFBE088854A102110
:102D000001F06CFB03AF01970095E08804AB022251
:102D1000132101F05DFB02AE092001960090E088CE
:102D20007D4B1022082101F053FB7C496846007A54
:102D300048706846407A88700A4668461321808940
:102D400001F04CFB01970095E08804AB02221321AF
:102D500001F03EFB724801960090E088714B102212
:102D6000012101F035FB70496846007A48706846D9
:102D7000407A88700A4668461321808901F02EFB4C
:102D80000920019600900222E08806AB114601F06E
:102D90001FFB0546E088002101F026FB01213620BB
:102DA00001F0D2F90123362260480C9901F020FA93
:102DB000057001F02FFA00200DB0F0BD38B50D46BA
:102DC00001206946524C08802380288801F012FBBC
:102DD0002071FF2817D0A978E08801F005FBE08872
:102DE000EA1C801C80B2082101F0F8FAE0882A462B
:102DF000001D80B20B32012101F0F0FA287B207215
:102E0000002808D00AE01B23DB02DA1D8921404894
:102E1000FFF7B2FB0DE0002069460880E0886A46B3
:102E2000401D80B2022101F0D9FA0221362001F0C2
:102E30008BF9002038BD70B5354D0C46287901F06E
:102E4000A9FA2188884211D1E888A21C001D80B20D
:102E5000012101F0C3FA287AC0070AD0E8880021CE
:102E6000001D82B22846FFF79DFB02E08120FFF79C
:102E70000DFF002070BDF8B5254C180A0D462379CA
:102E80000021802298422DD1E38828889E1CB042E0
:102E900000D101212E4608365B1D374698420FD0DF
:102EA000012902D002290BD01CE03246082101F092
:102EB00095FAE879002814D0287AFFF7AFFE10E0E1
:102EC0006B7A297A1E020E4301D0012E0AD13A46AE
:102ED000022101F083FA207A012E09D04008400037
:102EE000207200222988207901F08AFA0020F8BD9A
:102EF00001210843F4E710B50549180A0979884209
:102F000001D1FFF7A2FE002010BD00000229000041
:102F10006A800020B8450020C8450020694700208D
:102F200001020000D84500207C47002004D80000A2
:102F300038B50124684604700C21664801F036FA61
:102F4000644D6946EC702A1D352001F065FA0028B1
:102F500000D02C7100F0A4FC5F49322001F02CFA63
:102F60000021322001F0F0F800F0DAFE38BD10B593
:102F700000F036FD10BD10B556480223807832228D
:102F800001020E31554801F033F90121017013217E
:102F9000417001F03FF910BD10B504464D482C2397
:102FA0008078322201024D480E31801E01F020F956
:102FB00001462030047200224272084601F02AF9CC
:102FC00010BD10B5502332220D21454801F010F9F3
:102FD000044600F090FC204601F01CF9022132204A
:102FE00001F0B2F810BD3E4810B5012332220D2188
:102FF0000B3801F0FDF80221017001F00BF910BD52
:1030000010B500F040FD10BD364B10B59A4201D905
:103010001A4602E0002A00D1012201F003FA10BD95
:1030200010B50221322001F08FF82D4814233222EE
:103030000D21401C01F0DCF8002101741122027006
:103040004170012181740A2181810521C18101F032
:10305000E1F810BD224810B51E2332220D21C01CFC
:1030600001F0C6F8044601202077204606221E49BA
:103070001D3001F01BF80A21218261822021218369
:1030800061830021A1826170232001556420E082C8
:10309000FF208130A081FF206130E081122020706C
:1030A000AF22920032211148FFF7AEFF204601F017
:1030B000B1F810BD0A4810B5012332220D210B389A
:1030C00001F096F81121017001F0A4F810BD084933
:1030D000C860704776800020404600200438000019
:1030E0000E340000307500008480002002C800000B
:1030F0002002002010B5104601F00EF800280ED175
:10310000012332220D21684801F072F804460120A3
:10311000207066A0FEF7D8FB204601F07BF8002067
:1031200010BD70B5087815460F282DD008DC012891
:103130000DD0022835D003281CD00E2836D11FE030
:10314000102825D0112823D012282FD129E0487823
:1031500000282BD15448222332220D21801C01F05B
:1031600047F804460146284600F051FC204601F08D
:1031700051F81BE04878002818D100F05CFC15E0FD
:10318000487800F066FC11E0487800F063FC0DE040
:103190004878442802D0FFF743FF07E0FFF75AFFC3
:1031A00004E04878442801D100F060FC002070BDA4
:1031B00070B51D4616460C46104600F0ADFF0228BD
:1031C00021D1280A464DFF28A8701AD0322145483F
:1031D00000F0AEFF0521304600F0B6FF204600F0BB
:1031E00079FB21882980617A6971214606220A319A
:1031F000A81D00F05BFF0020FFF7CEFEFFF700FFE9
:1032000001E0FFF7DEFE002070BD10B510460A7821
:103210000A2A0BD14978002903D0084600F017FC90
:1032200004E0052100F090FF00F012FC002010BD2A
:1032300010B5104600F0C8FB002010BD10B528489E
:1032400001238078322201020E31274800F0D0FF9E
:103250000021017000F0DEFF002010BD10B5104607
:103260000C4600F059FF012808D12078002805D12C
:10327000FFF77DFE002801D000F0F4FB002010BD18
:1032800010B50C462046122218A10C3001F022F88D
:10329000002806D10622A11C194800F007FFFFF7FD
:1032A00009FF002010BD000002340000206761709B
:1032B0006D5F6465766963655F72656164795F6996
:1032C0006E645F68616E646C6572203A204741509D
:1032D0004D5F52455345545F434D44200D0A200035
:1032E0007680002002C80000103800001107B75C8B
:1032F00049D204A34071A0B535853EB083070000D4
:1033000084800020F8B5069F026004464160481C96
:103310000D460021E160216150431E46A06003215B
:1033200001F086F86061002020210855AF4206DADE
:10333000BE4204DC002E02DDE761A661F8BDFEE7B7
:103340000269C1688A4201DB501A704780688018A0
:10335000401A7047F8B515460F460446FFF7F0FFD0
:103360006168081A002811DDA84200DAC5B2206998
:10337000A26841198E1A6169002E08DC08182A46D5
:10338000394600F093FE206940192061F8BD081805
:10339000AD1B2A46394600F089FEE91932466069BC
:1033A00000F084FE2661F8BD30B513460D46044694
:1033B000FFF7C6FF002816DD984200DAC3B2E068C6
:1033C000A268C118891A904201D1606903E00029FE
:1033D00003DC61690818286006E06269101828603B
:1033E000581AC3B200E00023184630BD30B50B4672
:1033F0000446FFF7A5FF00280EDD984200DAC3B2AD
:10340000E168A568CA18501BA94201D1E36004E035
:10341000002802DCE26000E00023184630BD70B5F1
:10342000002800D0FEE7FB4C002522461046257000
:103430001021113000F0ADF9010004D022461046F1
:10344000F54B11300AE02078022803D0012801D082
:10345000A57070BD0021F04BEE4A0846FEF7E1F979
:1034600070BD022903D0012900D1017070470021ED
:10347000FBE770B5E74C1646A41D0A4603462578BF
:1034800031462046FFF7EDFF204619464230FFF750
:1034900061FF21460846423000F0ABF96078012810
:1034A00002D02078A8420AD072B6DA488178002982
:1034B00004D1012181700020FFF7B1FF62B670BD19
:1034C00010B5D44A002802D0022803D0FEE7527873
:1034D000082101E05278C9B2CE480930FFF7C9FF90
:1034E000CC4A0821521CCD4B5018FEF78DF910BD67
:1034F0000A460146C74810B52430FFF72BFFC549DF
:10350000C91C0846213000F074F9C24CE41C6078F4
:10351000012804D1022000F0B8FB0020607072B6D0
:10352000BC488178002904D1012181700020FFF777
:1035300076FF62B610BDB74808B5243000F00FF929
:1035400000281BD1B348483000F009F9002815D1F4
:10355000B3480090B24BAF48E121C83B0122C900FB
:103560002430FFF7CFFEFF205F300090A948FF21F5
:1035700096230122F5314830FFF7C4FE08BDA54A65
:1035800010B5521C0821A54B5018FEF73DF910BD8F
:10359000A0490020C91C4870887001220A70C91C0B
:1035A000487088700A70704710B59E4800780028EF
:1035B00016D19848C01C0078012811D19548483090
:1035C000FFF7BEFE00280BDD97494A2804DA087889
:1035D000421C0A700A2803D30020087000F062FB26
:1035E00010BD10B5914880780002323000F094FD93
:1035F00005280BD1022000F048FB86480221801DDF
:10360000FFF72FFF834801214430017010BD81482E
:1036100010B50121801DFFF724FF7E49C91C084613
:10362000213000F0A5F87B4CE41CA078012803D1E0
:1036300000F02BFB0020A07010BD764910B5891D4D
:103640000846423000F094F87248801D80780128C6
:103650000AD172B66F488178002904D101218170A6
:103660000020FFF7DCFE62B610BD10B5FFF787FF44
:10367000684868300078002801D1FEF78AF86C4964
:103680000020087010BDF8B56A4D002468690090EC
:10369000FDF7C1F9684E002802D13079022801D126
:1036A00000200090FDF795FB002820D100F01EFEC1
:1036B00000281CD0012405200007808AC00715D1EE
:1036C00000F094FC002812D15C488069002801D0E9
:1036D00068690090B178684600F00EFE002806D0B8
:1036E000B178684600F094FC002800D004242046FD
:1036F000F8BD38B5FFF7C7FF6946087004460428CF
:1037000019D144482430FFF71BFE002809D1414855
:103710004830FFF715FE002803D1FEF766F80028B1
:103720000AD0424880780002323000F0F5FC0528CB
:1037300001D1FDF70FF938BDFEF7AEF80028F8D13A
:10374000042CF8D1FEF729F80121002804D03848CC
:103750000170FDF70CF938BD6846017038BD0028CE
:1037600004D04069002801D0012070470020704734
:1037700010B50C460346FFF7E3FD9969884207DC64
:1037800020331878012803D1002018700120A07080
:1037900010BDF8B503461F480025801D8678477880
:1037A0002C46BE4202D01778002F06D014708470C9
:1037B00044700078012805D019E0012E00D00226BF
:1037C0001670F4E713480A461946243000F038F81A
:1037D00010490546C91C08462130FFF7C9FF0D4EA8
:1037E000F61CB078012802D100F04FFAB4702846D8
:1037F000F8BD10B50C460346FFF7A2FDD969884213
:1038000006DD20331878002802D10120607018707E
:1038100010BD00008C8000201F340020C134002027
:103820005203000069800020EB9000207680002089
:1038300082800020A0020020C6060800A80508001B
:10384000F8B514460E460546FFF77AFD002822DD3E
:10385000A04200DAC4B2E868AA6801198F1A69693F
:10386000002F08DC09182246304600F01FFCE868EB
:103870000019E8600CE00918E21B3046009200F0E5
:1038800015FC009A696990193A4600F00FFCEF6048
:103890000020305501E0002434702046F8BD0000BF
:1038A00010B50220FFF713FC00F0D8F910BDC14895
:1038B00001218170704710B5BF4801238078322202
:1038C00001020C31BD4800F093FC0121017000F0B1
:1038D000A1FC10BD10B500F0C9F9B6488078FFF71B
:1038E0005BFB00F0E1FA32221146B54800F09AFD88
:1038F000FFF7E1FF10BDF0B5044693B00E20207035
:1039000000276770A020A081E0810720207401209B
:1039100060741C20E074254622461F202035143296
:1039200028741646511E0B2000F076FD002805D0A5
:103930001222E274A3A1304600F0B8FB22463132D5
:10394000511E0C20119200F067FD002805D02F7445
:103950003A46A1A1119800F0A9FBE07C1A21081AAF
:1039600005062D0E2ED03E206946087001AA0220C1
:1039700000F052FD002806D00B226846027098A184
:1039800001A800F05BFD6846007800281AD0A84224
:1039900000D2054669460D70E07C6D1C8555E27CC1
:1039A0002046092115301154E17C401C0818694655
:1039B0000A7801A900F07AFB69460878E27C801C4D
:1039C0001018E07413B0F0BD10B500F0A5FB03288B
:1039D00003D0052801D0042801D1FFF7F2FA10BD69
:1039E00070B5754D0024E87803280DD2012802D067
:1039F000022805D102E000F025F901E000F04AFAC2
:103A0000E878401CE87000E00124204670BD0320E7
:103A100008700A20487000204882087548750822FE
:103A20000A8310224A8388836422CA832022505446
:103A3000A020C882704710B50121322000F084FB1D
:103A4000FFF795FA002801D0FFF7BBFA10BD7047C9
:103A50007047704710B500F05FFB022801D1FFF7F7
:103A6000B0FA10BD10B5FFF7ACFA10BD704710B535
:103A7000012332220D215D4800F0BAFB01210170C3
:103A800000F0C8FB10BD10B50A2332220E215848A1
:103A900000F0AEFB0A210170418081800021C180CD
:103AA0007D21C900018100F0B5FB10BD7047704752
:103AB0004F4810B51E2332220E21801D00F098FBC6
:103AC0000121017041700022C27010234371032351
:103AD00083700171027204228271C17100F09AFB3D
:103AE00010BD70B542481E2332220E21801D00F009
:103AF0007FFB044600F0E6F8054604202070012014
:103B000060701021A01C00F051FC280E6071280C80
:103B10002071280AE070A570204600F07BFB70BD84
:103B2000704770B5054632481E2332220E21801D93
:103B300000F05EFB0446687800F0CDF806202070A7
:103B4000012060701021A01C00F030FC062229A189
:103B5000A01C00F0ABFA204600F05CFB70BD70B515
:103B6000054623481E2332220E21801D00F040FB13
:103B70000446687800F0AFF8072020700D49012056
:103B800060702039887E2077088B6082204608226A
:103B90001031143000F08AFA064910222039A01C96
:103BA00000F084FA204600F035FB70BD704701201C
:103BB0007047704718810020768000200130000097
:103BC00001C800001107B75C49D204A34071A0B539
:103BD00035853EB083070000030383070000000023
:103BE0004441313435383020535053000234000002
:103BF0000E380000ABAB45552301000010B5104650
:103C00000C4600F089FA012809D13222012311461D
:103C1000900200F0EDFA2178017000F0FBFA00202C
:103C200010BD0020704710B505480078012804D069
:103C3000012000F02AF8002010BD0220F9E7000062
:103C4000D080002010B50223322237211B4800F01B
:103C5000CFFA0021018000F0DDFA10BD10B5FFF7AA
:103C60006AFCFFF78CFCFFF793FC10BD10B5372101
:103C700006233222880200F0BBFA3221018010496B
:103C80000988418000F0C6FA10BD10B504460B4803
:103C9000012332223721C01C00F0AAFA047000F080
:103CA000B9FA10BD054810B5012332223721801C16
:103CB00000F09EFA00F0AEFA10BD000002DC000039
:103CC0007680002010B500F0BFFB254900F0C2FB54
:103CD0002448081810BDF8B5234D0646A8760024E0
:103CE00000F0B2FB2919641CE4B20874082CF7D365
:103CF00000241027381BB04201DD002007E000F04F
:103D0000A3FBC117090E0918090A0902401A285510
:103D1000641CE4B2102CEDD300F096FB2883F8BDB0
:103D200010B52421104800F041FBFFF7C0FD10BD85
:103D300010B50E4802238078322201020E310C4861
:103D400000F056FA0D210170074920318978417041
:103D500000F060FA0321322000F0F6F910BD0000F7
:103D6000A0BB0D00A0860100F88000207680002016
:103D70001A38000010B5084609781C460B0000F000
:103D8000D1F908051E1E1E0816191C1EFFF790FE0D
:103D900015E04178012902D0022903D00FE0FFF796
:103DA000A0FE0CE011462046FFF781FE07E0FFF77A
:103DB000B7FE04E0FFF7B5FE01E0FFF7D0FE0020FC
:103DC00010BD10B50878304C801E030000F0AAF931
:103DD000020214188878A070C0070AD02B492A4A1A
:103DE0004879203AD07628480622891D001F00F025
:103DF0005DF9FFF7DBFE03E0FFF7BDF80020A070E0
:103E0000002010BDF8B518460D4601461223204883
:103E100000F0EEF904462846FFF7C9FE0027002807
:103E200021D0194EB078C0071DD030460822A91CF9
:103E3000103800F04FFA002815D130462038018B99
:103E40002A8891420FD101212170807E6074314611
:103E500010222039601C00F029F9B078FFF79CF897
:103E6000FFF724FE00E02770204600F0D3F9207809
:103E7000002801D1FFF77FF80020F8BD10B5FFF74B
:103E800098FE002010BD00001881002076800020E0
:103E90001838000010B5012332223621114800F0F5
:103EA000A7F900F0B7F910BD10B536210E23322264
:103EB000880200F09DF904460B4808220088208003
:103EC0000120A0700949E01C00F0F0F8FF20E0722A
:103ED0000020207306A0FDF7F7FC204600F09AF9B9
:103EE00010BD000003D80000768000208F4700201E
:103EF000206170705F73616D706C653132385F6521
:103F00006E61626C65200D0A0000000010B510465D
:103F10000C4600F001F9012809D132220123114693
:103F2000900200F065F92178017000F073F900202B
:103F300010BD0020704710B50822891C0E4800F003
:103F4000B5F8002010BD10B5322211460B4800F024
:103F500069FA0B4C042320783222401C2070362151
:103F6000084800F045F921788170074909880180E7
:103F700000F050F9002010BD8F47002001C800005C
:103F8000EC90002005D8000076800020064C01252A
:103F9000064E05E02046E36807C82B4398471034D7
:103FA000B442F7D3FCF750FAE84600201847002047
:103FB00003B40148019001BD551B020003B4014840
:103FC000019001BD0F3B030003B40148019001BD06
:103FD000CF2B030003B40148019001BDCB2C03009B
:103FE00003B40148019001BD0990020003B40148E7
:103FF000019001BDC12D030003B40148019001BD32
:104000000921030003B40148019001BDC92D03003B
:1040100003B40148019001BD2B69020003B40148BB
:10402000019001BDEB31030003B40148019001BDD3
:104030003D32030003B40148019001BDD7210300C4
:1040400003B40148019001BD1F21020003B40148DF
:10405000019001BD2F2F030003B40148019001BD61
:10406000998F020003B40148019001BD938F0200B3
:1040700003B40148019001BDCD8C020003B4014896
:10408000019001BD418F020003B40148019001BDC0
:104090002768020003B40148019001BD396802009D
:1040A00003B40148019001BDB780020003B4014888
:1040B000019001BD213B030003B40148019001BD03
:1040C0008D3D030003B40148019001BDBF220200F1
:1040D00003B40148019001BDEB26030003B401487D
:1040E000019001BD3524030003B40148019001BDD6
:1040F0002F22020003B40148019001BDDD2003001E
:1041000003B40148019001BD533B030003B40148CF
:10411000019001BD9D20030003B40148019001BD41
:10412000B326030003B40148019001BDFD3D030027
:1041300003B40148019001BDA528030003B4014860
:10414000019001BDD5AF020003B40148019001BD4B
:104150003126030003B40148019001BDA1A502006E
:1041600003B40148019001BDE3A5020003B4014876
:10417000019001BD87A8020003B40148019001BD70
:10418000A7A9020003B40148019001BD93AA02004F
:1041900003B40148019001BD95AB020003B401488E
:1041A000019001BDF9AB020003B40148019001BDCB
:1041B00069AC020003B40148019001BD17AD0200D3
:1041C00003B40148019001BD77AD020003B401487A
:1041D000019001BDF1AD020003B40148019001BDA1
:1041E00085AE020003B40148019001BD11AF020089
:1041F00003B40148019001BDB123030003B4014899
:10420000019001BD49E5020003B40148019001BDE0
:10421000F9E3020003B40148019001BDE12303006A
:1042200003B40148019001BD4BCD020003B4014825
:10423000019001BD99D1020003B40148019001BD74
:10424000ABD0020003B40148019001BD69D0020067
:1042500003B40148019001BD77CF020003B40148C7
:10426000019001BD01CC020003B40148019001BDE1
:1042700029CC020003B40148019001BD15D202000F
:1042800003B40148019001BD8DD2020003B401487E
:10429000019001BD3350020003B40148019001BDFB
:1042A000A73A030003B40148019001BD554802003C
:1042B00003B40148019001BD1F50020003B401483E
:1042C000019001BD7F0C030003B40148019001BDC2
:1042D000AB0C030003B40148019001BD773B030020
:1042E00003B40148019001BDD729030003B401487C
:1042F000019001BD7920030003B40148019001BD84
:104300002129030003B40148019001BDC7680200E0
:1043100003B40148019001BD0D2C030003B4014812
:10432000019001BD1531030003B40148019001BDA6
:104330001B66020003B40148019001BD652C030017
:1043400003B40148019001BDDB2E030003B4014812
:10435000019001BD231D020003B40148019001BD7D
:10436000C32C030003B40148019001BD3B66020069
:1043700003B40148019001BD2B66020003B401485B
:10438000019001BD038D020003B40148019001BDFD
:10439000CF8F020003B40148019001BDE3E30200A6
:1043A00003B40148019001BD95E3020003B4014844
:1043B000019001BD533B030003B40148019001BDCE
:1043C0008725030003B40148019001BD95980200C0
:1043D00003B40148019001BD9599020003B401485E
:1043E000019001BD6D9B020003B40148019001BD25
:1043F0007B9C020003B40148019001BDB7E30200B9
:1044000003B40148019001BDF3AF020003B40148B9
:10441000019001BDA59B020003B40148019001BDBC
:10442000D129030003B40148019001BD25280300F0
:1044300003B40148019001BD1522030003B40148F3
:10444000019001BD213B030003B40148019001BD6F
:10445000FD3A030003B40148019001BDD33A0300C3
:1044600002E008C8121F08C1002AFAD1704770473D
:10447000002001E001C1121F002AFBD1704700009B
:10448000AD050020491C0020351D0020F31D002033
:10449000211E00203520002099200020F920002036
:1044A0000101000A04280A040203AA0055032A0095
:1044B000A001FFFF2C01FF003F00FF03FF010000F0
:1044C00098450020B0450020EA900020030001003C
:1044D00053657276657220545820446174610053AC
:1044E0006572766572205258204461746100466C92
:1044F0006F7720436F6E74726F6C004C454420439D
:104500006F6E74726F6C00B75C49D204A34071A0E7
:10451000B535853EB08307B85C49D204A34071A08D
:10452000B535853EB08307BA5C49D204A34071A07B
:10453000B535853EB08307B95C49D204A34071A06C
:10454000B535853EB08307BB5C49D204A34071A05A
:10455000B535853EB083070002DC00007D260020D3
:1045600000DC00004D29002003380000BB2900209A
:1045700000300000D32900200E300000272B00203F
:1045800004DC0000532A002005DC0000FB2A002088
:1045900008DC0000CD2B0020584500200100000061
:1045A0006045002001000000684500200600000072
:1045B00000000000000000000001020304050607DF
:1045C00008090A0B0C0D0E0F1011121314151617F3
:1045D00018191A1B1C1D1E1F2021222324252627E3
:1045E00028292A2B2C2D2E2F20460020384600204B
:1045F000748000200300010003D80000B52C0020C7
:1046000000D80000BD2D00200E300000772E0020C5
:1046100005D80000372E002003380000F72E0020B8
:10462000F8450020010000000046002001000000C5
:10463000084600200200000018460020010000008B
:1046400000000000E04600208380002006000100FA
:1046500001340000F5300020003400002331002038
:104660001034000081320020003800000B3200209E
:1046700001380000B1310020033800003132002041
:1046800000C800005D32002013380000753D002096
:1046900015380000C33D002017380000053E0020FB
:1046A000193800007D3E002003DC0000FD3B0020A7
:1046B00001DC0000233C002006DC0000273C002039
:1046C00004D800000D3F002002D80000373F002032
:1046D00001D80000333F002001C80000473F002000
:1046E0005046002012000000984700200080002063
:1046F0001C010000704400209847002020900020FA
:10470000D00000007044002068070800202A08003C
:10471000E005000070440020800C0000FF10000045
:10472000B85C49D204A34071A0B535853EB083077B
:10473000040000BA5C49D204A34071A0B535853E9F
:10474000B08307160000B95C49D204A34071A0B53C
:1047500035853EB08307060000BB5C49D204A34008
:1047600071A0B535853EB083070A00001011121301
:104770001415161718191A1B1C1D1E1F12000020D5
:104780002122232425262728292A2B2C2D2E2F31A0
:084790003233343536373800AE
:040000052000044192
:00000001FF
